{
    "_format": "hh-sol-artifact-1",
    "contractName": "WavePortal",
    "sourceName": "contracts/WavePortal.sol",
    "abi": [
        {
            "inputs": [],
            "stateMutability": "nonpayable",
            "type": "constructor"
        },
        {
            "inputs": [
                {
                    "internalType": "address",
                    "name": "person",
                    "type": "address"
                }
            ],
            "name": "getInteractions",
            "outputs": [
                {
                    "internalType": "uint256",
                    "name": "",
                    "type": "uint256"
                }
            ],
            "stateMutability": "view",
            "type": "function"
        },
        {
            "inputs": [],
            "name": "getTotalWaves",
            "outputs": [
                {
                    "internalType": "uint256",
                    "name": "",
                    "type": "uint256"
                }
            ],
            "stateMutability": "view",
            "type": "function"
        },
        {
            "inputs": [],
            "name": "wave",
            "outputs": [],
            "stateMutability": "nonpayable",
            "type": "function"
        }
    ],
    "bytecode": "0x608060405234801561001057600080fd5b506100596040518060400160405280601181526020017f536d61727420636f6e74726163746f722100000000000000000000000000000081525061005e60201b6102441760201c565b6101e1565b6100fa81604051602401610072919061015f565b6040516020818303038152906040527f41304fac000000000000000000000000000000000000000000000000000000007bffffffffffffffffffffffffffffffffffffffffffffffffffffffff19166020820180517bffffffffffffffffffffffffffffffffffffffffffffffffffffffff83818316178352505050506100fd60201b60201c565b50565b60008151905060006a636f6e736f6c652e6c6f679050602083016000808483855afa5050505050565b600061013182610181565b61013b818561018c565b935061014b81856020860161019d565b610154816101d0565b840191505092915050565b600060208201905081810360008301526101798184610126565b905092915050565b600081519050919050565b600082825260208201905092915050565b60005b838110156101bb5780820151818401526020810190506101a0565b838111156101ca576000848401525b50505050565b6000601f19601f8301169050919050565b6107e4806101f06000396000f3fe608060405234801561001057600080fd5b50600436106100415760003560e01c80632f60ffd0146100465780636fe15b44146100765780639a2cdc0814610080575b600080fd5b610060600480360381019061005b91906104f2565b61009e565b60405161006d9190610632565b60405180910390f35b61007e610149565b005b6100886101f9565b6040516100959190610632565b60405180910390f35b600061010260405180606001604052806029815260200161078660299139600160008573ffffffffffffffffffffffffffffffffffffffff1673ffffffffffffffffffffffffffffffffffffffff16815260200190815260200160002054846102dd565b600160008373ffffffffffffffffffffffffffffffffffffffff1673ffffffffffffffffffffffffffffffffffffffff168152602001908152602001600020549050919050565b600160008082825461015b9190610669565b9250508190555060018060003373ffffffffffffffffffffffffffffffffffffffff1673ffffffffffffffffffffffffffffffffffffffff16815260200190815260200160002060008282546101b19190610669565b925050819055506101f76040518060400160405280600d81526020017f25732068617320776176656421000000000000000000000000000000000000008152503361037c565b565b600061023c6040518060400160405280601781526020017f5765206861766520256420746f74616c20776176657321000000000000000000815250600054610418565b600054905090565b6102da816040516024016102589190610572565b6040516020818303038152906040527f41304fac000000000000000000000000000000000000000000000000000000007bffffffffffffffffffffffffffffffffffffffffffffffffffffffff19166020820180517bffffffffffffffffffffffffffffffffffffffffffffffffffffffff83818316178352505050506104b4565b50565b6103778383836040516024016102f5939291906105f4565b6040516020818303038152906040527fe3849f79000000000000000000000000000000000000000000000000000000007bffffffffffffffffffffffffffffffffffffffffffffffffffffffff19166020820180517bffffffffffffffffffffffffffffffffffffffffffffffffffffffff83818316178352505050506104b4565b505050565b6104148282604051602401610392929190610594565b6040516020818303038152906040527f319af333000000000000000000000000000000000000000000000000000000007bffffffffffffffffffffffffffffffffffffffffffffffffffffffff19166020820180517bffffffffffffffffffffffffffffffffffffffffffffffffffffffff83818316178352505050506104b4565b5050565b6104b0828260405160240161042e9291906105c4565b6040516020818303038152906040527f9710a9d0000000000000000000000000000000000000000000000000000000007bffffffffffffffffffffffffffffffffffffffffffffffffffffffff19166020820180517bffffffffffffffffffffffffffffffffffffffffffffffffffffffff83818316178352505050506104b4565b5050565b60008151905060006a636f6e736f6c652e6c6f679050602083016000808483855afa5050505050565b6000813590506104ec8161076e565b92915050565b60006020828403121561050457600080fd5b6000610512848285016104dd565b91505092915050565b610524816106bf565b82525050565b60006105358261064d565b61053f8185610658565b935061054f8185602086016106fb565b6105588161075d565b840191505092915050565b61056c816106f1565b82525050565b6000602082019050818103600083015261058c818461052a565b905092915050565b600060408201905081810360008301526105ae818561052a565b90506105bd602083018461051b565b9392505050565b600060408201905081810360008301526105de818561052a565b90506105ed6020830184610563565b9392505050565b6000606082019050818103600083015261060e818661052a565b905061061d6020830185610563565b61062a604083018461051b565b949350505050565b60006020820190506106476000830184610563565b92915050565b600081519050919050565b600082825260208201905092915050565b6000610674826106f1565b915061067f836106f1565b9250827fffffffffffffffffffffffffffffffffffffffffffffffffffffffffffffffff038211156106b4576106b361072e565b5b828201905092915050565b60006106ca826106d1565b9050919050565b600073ffffffffffffffffffffffffffffffffffffffff82169050919050565b6000819050919050565b60005b838110156107195780820151818401526020810190506106fe565b83811115610728576000848401525b50505050565b7f4e487b7100000000000000000000000000000000000000000000000000000000600052601160045260246000fd5b6000601f19601f8301169050919050565b610777816106bf565b811461078257600080fd5b5056fe596f75206861766520746f74616c206f6620256420696e746572616374696f6e732077697468202573a26469706673582212201159a2a505401ca7e8492ddd478a8993a9a32d8d1e83a2df81a4ab057ff4c98f64736f6c63430008040033",
    "linkReferences": {},
    "deployedLinkReferences": {}
}